:1000000052C0000078C0000076C0000074C000003C
:1000100072C0000070C000006EC000006CC0000024
:100020006AC0000068C0000066C0000064C0000034
:1000300062C000000C947B215EC000005CC0000028
:100040000C942F2358C000000C9490250C94C225CA
:1000500052C0000050C000004EC000004CC0000064
:100060004AC0000048C0000001020408102040807F
:1000700001020408102001020408102004040404F2
:100080000404040402020202020203030303030342
:1000900000000000250028002B00000000002400C4
:1000A00027002A00E72511241FBECFEFD8E0DEBFCE
:1000B000CDBF11E0A0E0B1E0E0E7FDE402C00590B3
:1000C0000D92A43CB107D9F724E0A4ECB1E001C043
:1000D0001D92AD3BB207E1F710E0C3E5D0E004C0EC
:1000E0002197FE010E948726C235D107C9F70E94D9
:1000F00079220C94B62684CFCF93DF93882349F0DE
:10010000EB0181500E940F2499838883DF91CF9166
:100110000895FB0111821082F9CF0F931F938B0179
:100120009C0183E036952795179507958A95D1F719
:100130000C531E4F462F477021E030E0F90102C0FA
:10014000EE0FFF1F4A95E2F7AF01F801208124234B
:10015000CB010196211102C090E080E01F910F9128
:1001600008950F931F938B019C0183E0369527958B
:10017000179507958A95D1F7677081E090E001C0E7
:10018000880F6A95EAF7F801EC53FE4F2081452B62
:1001900031F48095822380831F910F910895822BE3
:1001A000FACFCF92DF92EF92FF92CF93DF936B0162
:1001B0007C0160E08EE0C816D104E104F10490F403
:1001C0008EE08C0D0E942A24E6012196AE01C70123
:1001D000B601C7DFCE01DF91CF91FF90EF90DF90A6
:1001E000CF9008958C2DEECF882341F08150682F59
:1001F00070E090E080E050E040E0B3CF089590E000
:1002000080E008950F931F93009709F488C061154B
:10021000710509F484C00091000110910101209141
:100220000201309103010E3F1F4F2F4F3F4F09F046
:1002300068C0DB014D915D916D917C91409300010F
:1002400050930101609302017093030140910001FA
:10025000509101016091020170910301DC0112963D
:10026000ED91FC9180819181A281B38180932D02D7
:1002700090932E02A0932F02B09330028481958137
:10028000A681B7818093290290932A02A0932B0222
:10029000B0932C0280859185A285B3858093250239
:1002A00090932602A0932702B09328028485958517
:1002B000A685B7858093210290932202A093230202
:1002C000B093240210921D0210921E0210921F027F
:1002D00010922002DCD38CE695E09093CE018093BF
:1002E000CD019093D0018093CF01C0D2009731F41B
:1002F00021E030E030933202209331021F910F91C0
:1003000008950091000110910101209102013091A6
:100310000301FB01008311832283338397CF8FEF87
:100320009FEFECCF8F929F92AF92BF92CF92DF92CE
:10033000EF92FF921F93CF93DF934B015C011091DB
:10034000340282E090E09093320280933102811473
:100350009104A104B10441F480913402811104C0DC
:1003600080913302C1E08111C0E0C12CD12C760113
:1003700080913402811106C080913302811102C044
:10038000CC23D1F083E090E090933202809331024D
:10039000CC2371F1CCE9DFEF111101C001D7CE01FF
:1003A000DF91CF911F91FF90EF90DF90CF90BF90A2
:1003B000AF909F908F9008956AE070E080E090E0A9
:1003C0000E949E2380E1C80E87E2D81EE11CF11C2A
:1003D0008FEF88169806A806B80631F0C1E08C1495
:1003E0009D04AE04BF0408F0C0E080E073D2C0CF2B
:1003F000D0E0C0E0D1CFCF92DF92EF92FF920F9387
:100400001F93CF93DF938F3F910511F008F050C0F9
:1004100020913102309132022330310539F02091A0
:100420003102309132022130310531F424E030E0E4
:1004300030933202209331026A017B01EC01823059
:100440009105A0F011E0AE01C701B6010ED2AB01DB
:10045000BC01CE011123F9F0DF91CF911F910F91D3
:10046000FF90EF90DF90CF900C94F50A8C01000F75
:10047000111F03531E4FD8018D919C91892B11F3AD
:100480000E94FF0A0297F1F6D801ED91FC91CE018E
:100490000995182FD8CF0E94170B90E080E0DF91CC
:1004A000CF911F910F91FF90EF90DF90CF90089523
:1004B0008FEF9FEFF4CF80E00DC2CF93DF9386E004
:1004C00090E090933202809331025DD2EC01EDEC2A
:1004D000F1E084E0DF011D928A95E9F7F9D51092E9
:1004E000320210923102CE01DF91CF9108958091B6
:1004F0003302089580911C02089560930001709367
:100500000101809302019093030190E080E008953F
:1005100060E170E080E090E000DE9093B8048093AA
:10052000B70443E050E069EB74E0E6DDE1EEF1E0B2
:1005300086899789A08DB18D0196A11DB11D868BED
:10054000978BA08FB18F0895CF93DF93E1EEF1E009
:1005500080E090E0A0EAB1E4828F938FA48FB58F02
:100560008AE396E6A3EFBEE984839583A683B783E7
:100570008DEE9AEBA3EABCE580879187A287B387CB
:1005800087E691E9A0E2B9E184879587A687B787D6
:1005900082EB90E1A2E4B0EC808B918BA28BB38BC9
:1005A000A5EDB1E0B383A283E1EDF1E01196FC93F8
:1005B000EE938AE291E0918380839383828385EF37
:1005C00091E015969C938E93149785EE91E0139687
:1005D0009C938E93129742E350E060E070E018968F
:1005E0004D935D936D937C931B97C1EBD4E0188280
:1005F00081E090E0A0E0B0E089839A83AB83BC8384
:1006000060E170E080E090E0CCDD9F838E8381E04C
:100610008D83DF91CF9108958091B10481111DC028
:1006200081E08093B1048091B2049091B304A091D1
:10063000B404B091B5040197A105B10571F480919E
:10064000B604882351F060E170E080E090E065DD61
:100650009093B8048093B704C7CD08954F925F92EA
:100660006F927F928F929F92AF92BF92CF92DF92C2
:10067000EF92FF920F931F93F89440900C025090CA
:100680000D0260900E0270900F02C0900002D09098
:100690000102E0900202F0900302452B09F0A6C08F
:1006A0009B01AC01241935094609570929013A0172
:1006B000009108021091090220910A0230910B0268
:1006C00048015901840C951CA61CB71C8016910684
:1006D000A206B306A0F40091040210910502209135
:1006E0000602309107020F5F1F4F2F4F3F4F0093BD
:1006F00004021093050220930602309307028092B1
:10070000080290920902A0920A02B0920B02009194
:100710000402109105022091060230910702809296
:10072000100290921102A0921202B0921302009352
:10073000140210931502209316023093170260934F
:100740000C0270930D0280930E0290930F02A3018E
:10075000920160E87AE186E090E00E9442266C0D0A
:100760007D1D8E1D9F1D609300027093010280937A
:100770000202909303020091000110910101209167
:100780000201309103010F3F1F4F2F4F3F4FF1F0F8
:1007900000910001109101012091020130910301AB
:1007A0000E3F1F4F2F4F3F4F89F0C0900001D09058
:1007B0000101E0900201F090030121E08C149D04FE
:1007C000AE04BF0408F420E020931C0278941F912B
:1007D0000F91FF90EF90DF90CF90BF90AF909F90E0
:1007E0008F907F906F905F904F9008954B015C01C8
:1007F00084189508A608B708A3019201261B370B99
:10080000480B590B6415750586059705E0F08216AF
:100810009306A406B50640F420E030E0A901811457
:100820009104A104B104A1F460E87AE186E090E0CB
:100830000E944226A7019601261B370B480B590B35
:10084000CA01B901C3CF82169306A406B50660F7A4
:10085000A501940160E87AE186E090E00E944226DA
:100860006C0D7D1D8E1D9F1DB1CFF8CECF93DF93F4
:1008700000D000D0CDB7DEB71C821B821A8219824D
:10088000109218021092190210921A0210921B0272
:10089000BE016F5F7F4FCE0103960E9425216981C3
:1008A0007A818B819C810E941E1A009761F4BE019F
:1008B0006F5F7F4FCE0103960E94312169817A815B
:1008C0008B819C8128D50F900F900F900F90DF9116
:1008D000CF910895FF920F931F93CF93DF93082F2B
:1008E00060E070E0CB010E949E23FF24F3940E94FD
:1008F0000919EC01892B89F010E0CE3F8FEFD80762
:1009000069F0002361F160E070E0CB010E949E235A
:1009100081E090E0892B59F322C011E01FD5EC0152
:10092000892B21F0CE3F8FEFD80759F711111EC048
:1009300011E0229609F410E00E94BA18EC01892B0C
:1009400021F0CE3F8FEFD807E1F6111111C011E071
:10095000CE3F8FEFD80709F410E001110BC0CE0194
:10096000DF91CF911F910F91FF90089511E0E4CF97
:1009700011E0F3CF60E070E0CB010E949E231F25C1
:10098000812F90E0C7CFCF93DF9380911C02882303
:1009900021F060E070E0CB0148D631D6D0E0C0E075
:1009A000892B71F06AE070E080E090E00E949E2365
:1009B00081E090DF24D62196C03727E1D20781F766
:1009C00023D60E94721A10923402109233021092AF
:1009D0002D0210922E0210922F02109230021092CD
:1009E000290210922A0210922B0210922C021092CD
:1009F00025021092260210922702109228021092CD
:100A000021021092220210922302109224021092CC
:100A10001D0210921E0210921F02109220024EEF31
:100A20005FEF6FEF7FEF4093000150930101609300
:100A300002017093030110921C02E0E1F2E028E051
:100A4000DF011D922A95E9F710920C0210920D0217
:100A500010920E0210920F021092080210920902D8
:100A600010920A0210920B021092040210920502D8
:100A700010920602109207021092000210920102D8
:100A80001092020210920302DF91CF91089510920A
:100A900040021092410210924202109243021092C0
:100AA0003F02809148029091490290933E028093C8
:100AB0003D0210923C0210923B02109237021092BB
:100AC00038021092390210923A02109245021092A6
:100AD000440290E080E00895CF92DF92EF92FF927F
:100AE0000F931F93CF938C01892B09F055C0209150
:100AF00048023091490280913D0290913E0240911E
:100B000048025091490250933E0240933D022817FB
:100B1000390781F010923C0210923B02109237028A
:100B2000109238021092390210923A021092450245
:100B3000109244028091480290914902019761F518
:100B40008091440290914502892B21F48091040107
:100B5000811112C080914402909145020197E1F405
:100B60008091370290913802A0913902B0913A02F7
:100B70000197A105B10581F4109237021092380255
:100B80001092390210923A021092040182E090E031
:100B900090934502809344028091480290914902CB
:100BA000019709F01CC180915E0290915F0280174D
:100BB000910709F014C180915A0290915B02A091B3
:100BC0005C02B0915D02009709F409C120915902BD
:100BD00021110DC040915A0250915B0260915C025C
:100BE00070915D02452B462B472B09F4F8C02091EC
:100BF0004402309145022230310509F0F0C02091C5
:100C00003B022111ECC0FC01C080D180E280F38066
:100C100080913F02882309F4D3C080914B029091C8
:100C20004C02892B09F4FDC020914B0230914C02FB
:100C300081E02230310509F080E020914B023091B3
:100C40004C02C1E02130310549F020914B02309136
:100C50004C02C1E02230310509F0C0E0882309F4DC
:100C600056C0209155023091560240915702509142
:100C70005802C701B6010E942B2387FD14C02091A2
:100C8000550230915602409157025091580260919E
:100C900040027091410280914202909143020E9471
:100CA000032387FD22C020915502309156024091C6
:100CB000570250915802C701B6010E942B23181603
:100CC00034F52091550230915602409157025091CF
:100CD00058026091400270914102809142029091CD
:100CE00043020E940323811112C080914D02909112
:100CF0004E02A0914F02B0915002892B8A2B8B2B70
:100D000019F481E080933C0281E080933B02CC2384
:100D100009F456C020915502309156024091570275
:100D200050915802C701B6010E94032387FF14C0E7
:100D3000209155023091560240915702509158022D
:100D40006091400270914102809142029091430271
:100D50000E942B2387FF22C020915502309156021A
:100D60004091570250915802C701B6010E940323D7
:100D7000811126C0209155023091560240915702B0
:100D8000509158026091400270914102809142025C
:100D9000909143020E942B23181694F480914D02E7
:100DA00090914E02A0914F02B0915002892B8A2B54
:100DB0008B2B19F481E080933C0281E080933B020D
:100DC00081E090913B02911180E080933F02C092BC
:100DD0004002D0924102E0924202F0924302012B83
:100DE00009F067C18091440290914502892BD9F4A2
:100DF00010924A0210923B0280910401882379F0FC
:100E000082E090E0909345028093440210920401A6
:100E1000209148023091490281E0232BE9F080E0E3
:100E20001BC081E00ACF1092040180914A028823FE
:100E300049F010923C021092450210924402109226
:100E40004A02EDCF8091480290914902892BE1F04E
:100E500080913B0210923B02209144023091450266
:100E60002230310509F45EC088F42115310509F4FA
:100E700048C02130310509F4F3C010923C021092B1
:100E80003B0210924A0238C081E0E6CF23303105A0
:100E900009F4B1C02430310581F7409137025091F7
:100EA00038026091390270913A024115510561058D
:100EB000710561F041505109610971094093370290
:100EC000509338026093390270933A02409137028E
:100ED000509138026091390270913A02452B462BAD
:100EE000472BD9F420914602309147022130310539
:100EF00009F046C010923C02109245021092440242
:100F00000CC080910401882341F082E090E090932E
:100F100045028093440210920401109235028091A0
:100F20003C02CEC08823C9F380914D0290914E02BD
:100F3000A0914F02B0915002181619061A061B060E
:100F40000CF07DC08091480290914902019709F010
:100F500076C080914D0290914E02A0914F02B091C7
:100F600050028093370290933802A0933902B093D5
:100F70003A0283E090E09093450280934402CDCF03
:100F8000409151025091520260915302709154026B
:100F9000452B462B472BA9F010923C028091510221
:100FA00090915202A0915302B09154028093370263
:100FB00090933802A0933902B0933A0281E090E016
:100FC000DACF882399F08091050190910601A091D4
:100FD0000701B09108018093370290933802A093E3
:100FE0003902B0933A0284E090E0C5CF10923C02FF
:100FF00082E090E0C0CF8091370290913802A091BA
:101000003902B0913A020097A105B10559F0019754
:10101000A109B1098093370290933802A093390255
:10102000B0933A028091370290913802A091390230
:10103000B0913A02892B8A2B8B2B09F06ECF8091CD
:10104000050190910601A0910701B0910801892B3B
:101050008A2B8B2B09F44ECF81E080933C02B3CFD7
:1010600040913702509138026091390270913A02F2
:10107000411551056105710561F041505109610942
:10108000710940933702509338026093390270938C
:101090003A024091370250913802609139027091C2
:1010A0003A02452B462B472B09F037CF8111C7CF8A
:1010B0009FCF80913502882309F431CF8091360289
:1010C000CF911F910F91FF90EF90DF90CF900895F7
:1010D000109240021092410210924202109243027A
:1010E00010923F02109245021092440210923E026A
:1010F00010923D0210925F0210925E0210923C022A
:1011000010923B021092370210923802109239026C
:1011100010923A02109236021092350210925A0240
:1011200010925B0210925C0210925D0210925902C2
:1011300010925502109256021092570210925802C5
:1011400088EE93E0A0E0B0E0809305019093060163
:10115000A0930701B093080110925102109252021D
:10116000109253021092540210924D0210924E02AD
:1011700010924F021092500210924C0210924B02A9
:1011800081E08093040110924A0210924902109269
:101190004802109247021092460290E080E00895C3
:1011A0008091480290914902892BE1F480910401D9
:1011B000882351F080914A02811106C081E080931A
:1011C000360280933502089580914A02882341F0C7
:1011D00080910401811104C01092360281E0F1CFA8
:1011E00010923502089582E090E0FA0191838083A5
:1011F0008FEF9FEF0895CF93DF93EA01009711F0EF
:101200000E948F1B1982188290E080E0DF91CF91BD
:101210000895DB01009719F48FEF8C9308952EEF5A
:101220002C9340968031910508F036C0FC01E55EB4
:10123000F64F0C9487264A09480946094409420991
:1012400040093C093E093A093809360933092F0992
:101250002B0931094C0980E311968C93089589E29A
:10126000FBCF82E2F9CF11961C92089583E2F4CF6E
:1012700081E2F2CF81E1F0CF87E2EECF8AE2ECCFDC
:1012800080E1EACF84E2E8CF88E2E6CF86E2E4CFED
:1012900081E3E2CF83E3E0CF80E2DECF80916C0296
:1012A00090916D02089590936D0280936C02089561
:1012B00080916B02089590916B02892B80936B0251
:1012C0000895982F909580916B02892380936B02EB
:1012D000089580916A020895809168029091690250
:1012E00008956115710559F0FB0130E020E070E0D0
:1012F00060E02417350719F06115710511F0CB0175
:101300000895A081B181A817B90709F4BF012F5F23
:101310003F4F3696EECF80916E0281111CC062D293
:1013200068D290936102809360020E9494130E949D
:10133000A61390936502809364020E9424180E9471
:101340002B18909363028093620281E080936E0277
:1013500090E080E0089584EF9FEF08958F929F9230
:10136000AF92BF92CF92DF92EF92FF920F931F93B3
:10137000CF93DF93CDB7DEB72A970FB6F894DEBFD1
:101380000FBECDBF1A86198618861F821E821D8247
:101390001C821B821A82198280916E0207EF1FEF56
:1013A000882309F49CC08E010D5F1F4F9E012B5FA7
:1013B0003F4FAE01495F5F4FBE01675F7F4F90E0D7
:1013C00080E00E94A4198C01009721F005960297F5
:1013D00008F0DBC029853A852115310509F402C1E1
:1013E000ED80FE804B815C81B701640F751F8F819A
:1013F00098858617970708F4F5C0E20EF31ED7010B
:101400009C91903C09F07FC04230510508F47BC0AC
:1014100011968C9140916C0250916D02452B09F40C
:101420009CC0913F08F071C02CE1290F2D3008F4C9
:101430008BC02DE2290F203108F489C0903C21F4A3
:101440008150823008F483C088E3890F8B3008F420
:1014500081C099E0C92E99E0D92EE3EFF8E06D81C3
:101460007E81AE014F5F5F4F89859A8509955C014A
:10147000C114D104A1F189809A808114910479F179
:101480008B819C818815990508F487C010E000E0E5
:101490004B815C8170E060E0C7010E94AF260115BE
:1014A0001105E9F449815A8169857A858D819E818A
:1014B000680F791FC501F6010995E980FA800D8151
:1014C0001E812F81388549855A856FEF7FEF81E036
:1014D00090E00E9440198C01892B09F056C0C80188
:1014E0002A960FB6F894DEBF0FBECDBFDF91CF9125
:1014F0001F910F91FF90EF90DF90CF90BF90AF9032
:101500009F908F90089580E085CF30E020E0220FFB
:10151000331FF901E05AFD4F0190F081E02D309723
:1015200009F497CF892F90E00995009709F491CF9E
:10153000DC011296ED91FC9113971496CD90DC90FE
:10154000309709F08CCF1FC021E030E0E0CF22E0DF
:1015500030E0DDCF23E030E0DACFD12CC12CEBEF4F
:10156000F8E09F3F09F07BCFE0916002F0916102CB
:10157000309721F4C90104EF1FEF0CC08FEF90E00A
:1015800009950097A9F604EF1FEF89859A850097C2
:1015900009F4A5CF0E948F1BA2CF0E946D1A8C0167
:1015A00089859A850E948F1B70E060E0C4010E94CB
:1015B000061A98878F830E943D199E838D836F81C1
:1015C00078856115710559F0C8010E941B1D9A8725
:1015D000898706EF1FEF892B09F058CF59CF08EF05
:1015E0001FEF56CF08EF1FEFD0CF20916E022223BE
:1015F00019F020E00C94AB1387EF9FEF08958091D2
:101600006C0290916D0208950E9430180E948A1712
:10161000F5D0E0E6F2E088E0DF011D928A95E9F777
:1016200010926E0290E080E008950C94E71521E09E
:1016300040E050E0BA010C94AB1386E090E0FA0170
:101640009183808390E080E0089547E050E06DE270
:1016500071E047CEDF92EF92FF920F931F93CF93EB
:10166000DF938A01EC01C60FD71FE0907202F09061
:101670007302D9800E94551AD816190678F082E0B4
:1016800090E0F801918380838EEF9FEFDF91CF91FF
:101690001F910F91FF90EF90DF900895EF2841F494
:1016A00082E090E0F8019183808384EF9FEFEECF9A
:1016B00089818093710290E00196F8019183808383
:1016C00090E080E0E3CFCF93DF93EA010E94981689
:1016D000882321F00E94621A0E94991682E090E00D
:1016E000998388838BEF9FEFDF91CF910895CF93FC
:1016F000DF93EB0186E0FB0111928A95E9F78FEF0A
:101700008883D6DD8983E5DD8A83E6DD9D838C834E
:10171000DF91CF910895CF93DF93EA010E949B164A
:10172000811109C082E090E09983888385EF9FEF63
:10173000DF91CF91089590E080E0B5DD81E090E009
:101740009983888390E080E0F3CF0F931F93CF932A
:10175000DF93EA018C01060F171F0E949B1681116F
:101760000BC082E090E09983888385EF9FEFDF9143
:10177000CF911F910F910895F8018181823038F047
:1017800082E090E0998388838EEF9FEFF0CF81E035
:1017900090E089DD88E090E09983888390E080E0A4
:1017A000E6CFCF93DF930097D1F4EB01FB013296A4
:1017B00086E0DF011D928A95E9F78FEF888385E047
:1017C00089831A820E94551A8B830E94541A9D8322
:1017D0008C8381E08E838F83DF91CF910895DF9199
:1017E000CF9117CD85E29BE09093700280936F02BA
:1017F000089580916F029091700208951092700286
:1018000010926F0208958091720290917302089570
:10181000411105C0611571058105910561F0609365
:1018200072027093730280937402909375024093D6
:10183000760281E0089580E00895FF920F931F9350
:10184000CF93DF938A01EC01C60FD71FF9800E9466
:10185000551AF816190668F082E090E0F8019183B5
:1018600080838EEF9FEFDF91CF911F910F91FF90BB
:1018700008956C817D818E819F814B81C9DF8111AB
:1018800008C082E090E0F8019183808384EF9FEFAD
:10189000EACF89818093710290E00196F8019183EB
:1018A000808390E080E0DFCFCF93DF93EA01FC01FB
:1018B000E60FF71F64817581868197814381A8DFD8
:1018C000811109C082E090E09983888384EF9FEFC3
:1018D000DF91CF91089581E090E09983888390E033
:1018E00080E0F6CFE2E7F2E04081518162817381CE
:1018F000480F511D611D711D4083518362837383A5
:101900000895CF93C09171024C2F50E06091720204
:101910007091730201960E94A6268C2FE3DF10922D
:101920007102CF910895009799F48091720290917D
:1019300073022FEFFB012083892B59F02091710254
:1019400030E02F5F3F4F2417350719F4CB01D9CF73
:1019500060CC0895009799F480917202909173027F
:101960002FEFFB012083892B59F02091710230E089
:101970002F5F3F4F2417350719F4CB01C2CF49CC55
:10198000089523E1AC01249FC001259F900D1124EF
:10199000E0917B02F0917C02E80FF91F23813481F2
:1019A0002250310981E02230310508F080E00895AD
:1019B0000F931F93CF93DF9300917D0210917E02CE
:1019C000D0E0C0E080E00C171D0749F491E08111E0
:1019D00090E0892FDF91CF911F910F910895811190
:1019E000F5CFCE01CEDF2196EECFA0917B02B09154
:1019F0007C02109729F120917D0230917E0282179E
:101A00009307F0F453E1589F9001599F300D112432
:101A1000A20FB31FED91FC911197309789F01296A8
:101A20008C91681768F48DE0689FE00DF11D11241A
:101A300080819181892B21F081E09281491708F002
:101A400080E008959C0143E1429FC001439F900DB7
:101A50001124E0917B02F0917C02E80FF91F83854D
:101A6000823091F481E090E06581768140910901B6
:101A700050910A016417750711F490E080E0892BFA
:101A800019F081E0232B09F080E00895FC01A0818A
:101A9000B1818DE0689FA00DB11D112413964D9169
:101AA0005C9185859685489F9001499F300D589F90
:101AB000300D1124C9010196611103C0478144FD15
:101AC00004960895EF92FF920F931F93CF93DF93A5
:101AD000EA01FC01E60FF71F02811381E480F58023
:101AE0004F2D6E2DC80181DF81110DC082E090E085
:101AF000998388838EEF9FEFDF91CF911F910F9194
:101B0000FF90EF900895C8013CDF882339F082E010
:101B100090E09983888388EF9FEFEECF10931001B8
:101B200000930F01E0921101F092120181E090E028
:101B30009983888390E080E0DFCFCF92DF92EF92AD
:101B4000FF920F931F93CF93DF937A01EC01C60F9F
:101B5000D71FC0900F01D09010010091110110917A
:101B60001201412F602FC60140DF811110C082E0B9
:101B700090E0F701918380838AEF9FEFDF91CF910F
:101B80001F910F91FF90EF90DF90CF900895C601C5
:101B9000F8DE882341F082E090E0F70191838083B2
:101BA00088EF9FEFEBCF4C815D816E817F819A81C1
:101BB00089818F3F41F082E090E0F701918380833B
:101BC0008EEF9FEFDBCFE3E1EC9D9001ED9D300DBB
:101BD0001124E0917B02F0917C02E20FF31F01904F
:101BE000F081E02D2DE0029FE00DF11D1124019008
:101BF000F081E02D27E0129FE00DF11D112480837C
:101C000091838B81828343835483658376831F5FB3
:101C10001093120181E090E0F7019183808390E0BE
:101C200080E0ACCFEF92FF920F931F93CF93DF939F
:101C30007A018C01060F171FC0917B02D0917C02A4
:101C4000209781F021E030E0F8018281938140917A
:101C50007D0250917E028417950710F030E020E05D
:101C6000232B71F482E090E0F701918380838EEF63
:101C70009FEFDF91CF911F910F91FF90EF9008950B
:101C800043E1489F9001499F300D1124C20FD31F9B
:101C900078DE882341F082E090E0F7019183808331
:101CA00088EF9FEFE6CFF801248135812038310598
:101CB000C8F687818111D6CF4181842F90E08F7E35
:101CC000009741F082E090E0F7019183808386EFF6
:101CD0009FEFCFCF4F833E832D83268128871986A0
:101CE000223010F421E0288721E030E0F701318331
:101CF0002083BFCF88E090E0FA019183808390E059
:101D000080E00895FB018FEF808381E181838FEF75
:101D10009FEF9383828380E890E09583848316828B
:101D200017820895FB018FEF808391E09183828376
:101D30009383848384E3858381E090E09783868323
:101D4000089582E090E0FA019183808380EF9FEF15
:101D50000895DF92EF92FF920F931F93CF93DF933B
:101D6000EA01FC01E60FF71F8181813071F082E00A
:101D700090E0998388838FEF9FEFDF91CF911F9140
:101D80000F91FF90EF90DF90089582819381D4802E
:101D90002581E680F78000917B0210917C0201157D
:101DA000110539F482E090E0998388838CEF9FEFEE
:101DB000E4CF40917D0250917E028417950738F060
:101DC00082E090E0998388838EEF9FEFD6CF892BB6
:101DD00039F082E090E09983888386EF9FEFCDCF42
:101DE0008D2D8D7FB1F72130A1F781E0D11006C094
:101DF00091E0E916F10431F080E004C0E2E0EE1673
:101E0000F104D0F3882329F390E080E0BADD882341
:101E100039F082E090E09983888388EF9FEFADCF1F
:101E2000F801D38681E08487F686E586108A1786D6
:101E300081E090E09983888390E080E09ECF4DE040
:101E400050E067E571E04DCA8F929F92BF92CF92AA
:101E5000DF92EF92FF920F931F93CF93DF93EA01EC
:101E6000FC01E60FF71F828193810481B580E09128
:101E70007B02F0917C02309791F482E090E09983AC
:101E800088838CEF9FEFDF91CF911F910F91FF908F
:101E9000EF90DF90CF90BF909F908F90089520910A
:101EA0007D0230917E028217930738F082E090E045
:101EB000998388838EEF9FEFE6CF23E1289F60010F
:101EC000299FD00C1124EC0DFD1DE080F180E11460
:101ED000F10499F28281081748F78DE0089F80018C
:101EE0001124E00EF11EF70180819181892B29F6E2
:101EF000BB20E1F2F7E0BF9E40011124C4010E9423
:101F0000561BF70191838083E0917B02F0917C0264
:101F1000EC0DFD1D0190F081E02DE00FF11F80819F
:101F20009181009739F482E090E0998388838DEF66
:101F30009FEFA9CFA40170E060E00E94AF268091DE
:101F40007B0290917C02C80ED91EF601808191819E
:101F5000080F191FF801B28281E090E0998388830D
:101F600090E080E090CFAF92BF92CF92DF92FF924D
:101F70000F931F93CF93DF93EA01FC01E60FF71F46
:101F800082819381F48000917B0210917C02011583
:101F9000110581F482E090E0998388838CEF9FEFB4
:101FA000DF91CF911F910F91FF90DF90CF90BF9065
:101FB000AF90089520917D0230917E0282179307A1
:101FC00038F082E090E0998388838EEF9FEFE8CF2E
:101FD0002FEF2F0D2C3FA8F723E1289F6001299FA9
:101FE000D00C11240C0D1D1DF80180819181892BCD
:101FF00089F6FDE0FF9E50011124C5010E94561B89
:10200000F80191838083E0917B02F0917C02EC0DDA
:10201000FD1D80819181009739F482E090E09983E1
:1020200088838DEF9FEFBCCFA50170E060E00E9438
:10203000AF26E0917B02F0917C02EC0DFD1DF28257
:1020400081E090E09983888390E080E0A9CFCF92EF
:10205000DF92EF92FF920F931F93CF93DF93860F40
:10206000971FFC010281138180917B0290917C0279
:10207000892B81F082E090E0FA01918380838CEFDC
:102080009FEFDF91CF911F910F91FF90EF90DF9025
:10209000CF900895C801B0E0A0E00197A109B1096F
:1020A0008F3F9F4FA105B10540F082E090E0FA011B
:1020B000918380838EEF9FEFE4CF7A0183E1809F4D
:1020C0006001819FD00C1124C6010E94561BEC01B7
:1020D000009741F482E090E0F701918380838DEFD7
:1020E0009FEFCFCFA60170E060E00E94AF26D093B3
:1020F0007C02C0937B0210937E0200937D0290E0ED
:1021000080E02FEF3FEF41E061E070E08017910742
:1021100041F481E090E0F7019183808390E080E0DA
:10212000B0CF3A8B298B1B864C877E876D87188AA8
:102130001F8601966396EACFEF92FF921F93CF938B
:10214000DF93EC0110E0F12CE12C6A811617A8F066
:1021500070E0660F771FAE014F5E5F4FC7010E94B0
:10216000BB1B009721F02FEF3FEF3A8B298BDF91BC
:10217000CF911F91FF90EF900895612FCE0186DCE3
:1021800061E070E00E94061AE816F90608F47C0186
:102190001F5FDBCFF8942091790230917A0281E0C1
:1021A0002115310509F080E0232B09F0789408957A
:1021B0002F923F924F925F926F927F928F929F9257
:1021C000AF92BF92CF92DF92EF92FF920F931F9345
:1021D000CF93DF933C01660E771EF30182819381DA
:1021E0004C01B12CA12CC0917B02D0917C02209794
:1021F00069F021E030E060917D0270917E028617E7
:10220000970710F030E020E0232BD1F482E090E03B
:10221000FA01918380838EEF9FEFDF91CF911F9121
:102220000F91FF90EF90DF90CF90BF90AF909F9075
:102230008F907F906F905F904F903F902F90089578
:102240008092130190921401A0921501B092160190
:1022500063E1689F9001699F300D1124C20FD31F65
:10226000F3018181833040F082E090E0FA019183B4
:10227000808386EF9FEFD1CF2A012B813C81232BD6
:10228000F1F4288139819F8191FF2EC0232B09F41D
:102290006FC0209180029A81422F490F5527551F08
:1022A000BA0141E050E06138710514F050E040E0BF
:1022B000452B09F45DC02A87920F909380028150CC
:1022C000823008F481C066DF882309F4D8C0F301A6
:1022D0008181813009F48DC008F47BC0823009F41B
:1022E000C6C090E080E0ADC0232B09F441C020912E
:1022F0007F029A81E22FE90FFF27FF1F41E050E0A4
:10230000ED3FF10514F050E040E0452B89F12A87BC
:10231000920F90937F02D3CFA081B181A20FB31F00
:1023200011966C91060F111D0196295F3F4F84177E
:10233000950794F38D859E85089F1001099F300CA9
:10234000189F300C1124C114D104D1F48F8184FF63
:1023500017C00E94541AF5E02F0E311C21E082159F
:10236000930508F420E0A701435F5F4F21110EC0E1
:1023700082E090E0F2019183808387EF9FEF4DCF61
:102380000E94541A2FEF221A320AE8CF88819981CD
:10239000E80EF91EF70114830383FFEFCF1ADF0A5B
:1023A0007A018A818C151D0409F00CF48CCFE88128
:1023B000F981EE0DFF1D428150E030E020E010E099
:1023C00000E090E080E0B3CFF12CE12CD12CC12CC7
:1023D000E8CF81E090E09C838B83EADA882309F4DC
:1023E00080CF81E090E00E94530980E40E9461095F
:1023F00078CF89899A89019661F083E090E09C8387
:102400008B8382E090E00E94530980E40E945B0984
:1024100068CF8D819E812091090130910A01821738
:102420009307D1F460910D0170910E01AE014F5EE2
:102430005F4F80910B0190910C010E94DA1C009774
:10244000E1F2789422E030E0F20131832083892B9D
:1024500099F08DEF9FEFE1CE89288A288B2869F6C5
:10246000892B59F6CE0168DE188A1F86E8CF82E0F4
:1024700090E09C838B8335CF90E080E0CECE82E0ED
:1024800090E0F2019183808385EF9FEFC6CE8F921B
:102490009F92AF92BF92CF92DF92EF92FF920F93F3
:1024A0001F93CF93DF93EA018C01060F171FF801EA
:1024B0008181833098F082E090E09983888386EF71
:1024C0009FEFDF91CF911F910F91FF90EF90DF90E1
:1024D000CF90BF90AF909F908F90089580917B0296
:1024E00090917C02892B61F081E090E020917D0247
:1024F00030917E02232B11F490E080E0892B39F497
:1025000082E090E0998388838EEF9FEFDACF42DEFE
:10251000882309F4DFC0F8018181813009F495C076
:10252000E8F0823099F420917D0230917E02E091B2
:102530007B02F0917C0290E080E041E050E02817BF
:10254000390709F0BDC034DA811117C0789481E0F1
:1025500090E09983888390E080E0B3CF20917D0262
:1025600030917E02E0917B02F0917C0290E080E06D
:1025700041E050E02817390741F481E090E00E94E3
:10258000530980E40E946109E1CF63817481672B64
:1025900011F05483438301967396ECCFE0917B0254
:1025A000F0917C02E00FF11F23813481223031054C
:1025B000D9F4218932892F3F3F4FB1F425813681EB
:1025C0004091090150910A012417350761F5AF01C7
:1025D0004F5E5F4F60910D0170910E0180910B0174
:1025E00090910C010E94DA1CEFEFCE1ADE0AEE0A7F
:1025F000FE0A0D5E1F4F40917D0250917E0270E0F9
:1026000060E0C416D506E606F7063CF5009731F201
:102610007894892B09F49BCF82E090E0998388839A
:102620008DEF9FEF4ECFC114D104E104F104E1F628
:10263000232BD1F6CF0180DDE0917B02F0917C026B
:10264000E00FF11F108A1786CFCF10E000E090E076
:1026500080E0C12CD12C7601CECF0097C9F610E0D6
:1026600000E0812C912C540183E0E82EF12C1AC05B
:10267000E0917B02F0917C02E00FF11F8381948155
:10268000029749F4F482E38282E090E00E945309C9
:1026900080E40E945B09FFEF8F1A9F0AAF0ABF0A0E
:1026A0000D5E1F4F80917D0290917E02B0E0A0E010
:1026B00088169906AA06BB06DCF290E080E0A8CF57
:1026C000638174816230710511F4548343830196F0
:1026D000739635CF82E090E09983888385EF9FEFF2
:1026E000F0CE0097B9F48FEFFB01808320911301A6
:1026F0003091140143E1429FC001439F900D11248A
:10270000E0917B02F0917C02E80FF91F8285FB01CA
:10271000818308950C94090988E090E0FA0191837F
:10272000808390E080E0089510927A0210927902FE
:10273000EBE7F2E086E0DF011D928A95E9F78FE191
:102740009FE09093780280937702089580917702BA
:102750009091780208952F923F924F925F926F92DC
:102760007F928F929F92AF92BF92CF92DF92EF9221
:10277000FF920F931F93CF93DF93CDB7DEB72F97C1
:102780000FB6F894DEBF0FBECDBFF894E09179028A
:10279000F0917A023196F0937A02E093790278947C
:1027A00040907B0250907C024114510409F40CC209
:1027B000E0917D02F0917E02EF2B09F405C22D8796
:1027C00049875A876B877C8798878F831201B12C42
:1027D000A12C10E000E080917D0290917E02A8166D
:1027E000B90618F40115110529F1F89480917902C0
:1027F00090917A02019790937A028093790278946B
:10280000C8012F960FB6F894DEBF0FBECDBFDF9183
:10281000CF911F910F91FF90EF90DF90CF90BF90DD
:10282000AF909F908F907F906F905F904F903F9070
:102830002F9008957101E418F508D10117968C9135
:10284000179781FD54C013968D919C91149703970F
:1028500009F04DC015968D919C91EF81F8858E17EA
:102860009F0709F044C0B50190E080E07ED48A83E0
:1028700020917B0230917C023D832C833D85332364
:1028800009F44CC04C815D81452B09F49AC18091BB
:102890007D0290917E02A816B90608F092C1C5018A
:1028A000D1D88823E9F06C817D816E0D7F1D7D83F9
:1028B0006C83DB011F968D919C91892B89F0D12C23
:1028C000C12CF12CE12CAC81BD8112968C91129718
:1028D0008E151F0409F094F450961C921E921F97B7
:1028E0002A81222321F0B50190E080E040D43FEF1F
:1028F000A31AB30A43E1240E311C6DCFAC81BD8114
:10290000ED91FC91EC0DFD1D8581968108D7BFEFFF
:10291000EB1AFB0AEDE0CE0ED11CD5CFEC81FD8188
:10292000309709F44EC180917D0290917E02A816E5
:10293000B90608F046C1EE0DFF1DFF87EE87C50101
:1029400081D88B83882339F1AE85BF851F968D9101
:102950009C915097019621E01D964D915C918417B2
:10296000950709F020E02E831982712C10E000E019
:10297000AE85BF8512968C91781608F45DC0EE8501
:10298000FF85878590890196658576850E94512609
:10299000908B8787A5CFB1E0BE83E6CF992493942F
:1029A0006BC084D6F6019683858382C0D601ED90F4
:1029B000FC90B7E06B9EE00CF11C1124F7016381E1
:1029C000748180818F3F61F121E030E002C0220FED
:1029D000331F8A95E2F7C901092E000CAA0BBB0B25
:1029E000FB01408151816281738184239523A62359
:1029F000B72321E0892B8A2B8B2B09F420E0D4010B
:102A00002C93D70111968C91F60123853485820F82
:102A1000932F911D880E991E1486138663949BC074
:102A2000418150E0C4010E94A626EBCF998206EFB7
:102A30001FEFC5C01982C3C0F981F111A0CFEDE02D
:102A40007E9E70011124AE85BF85CD90DC90CE0CAA
:102A5000DF1C13D49D838C83BB81BB2309F49ECFE1
:102A600081E0EE85FF8527853089232B09F080E002
:102A7000982E882309F458C0672D8E859F8506D827
:102A8000D60118969C938E93179761E070E0BED4A0
:102A9000EE85FF85218932892F3F320709F481CFE6
:102AA000BC01C901C8D7D60116969C938E93159781
:102AB000D60115968D919C911697009709F4B6CF83
:102AC000EC81FD818E0F9F1F1A969C938E93199710
:102AD000AE85BF85ED91FC911197EE0EFF1EF701BB
:102AE00021853285148613861A968C91870DD9011B
:102AF0008D93711016C0EE85FF85878184FF11C00C
:102B000049855A856B857C85F901418352836383AE
:102B10007483F701838594850496A80FB91F1486E2
:102B20001386F701B287A187D60115968D919C91E6
:102B30001697892B09F443C0EE85FF8525813681E0
:102B40008091090190910A012817390779F01996A7
:102B50008D909C90612CD60112968C9112976816DC
:102B600008F424CF1A969C928E921997BE81BB23AB
:102B700009F460CF61E070E0F6018781908546D46A
:102B8000D6011796ED90FC90189715964D915C9193
:102B9000E1E0F0E0BA81BB2311F0F0E0E0E00C816D
:102BA0001D819C01B501882799278E1B9F0B68D337
:102BB0008C01892B21F0F60185819681B0D5739423
:102BC000D7CE0FEF1FEF8CCE10E000E00ECE2F928D
:102BD0003F924F925F926F927F928F929F92AF92AD
:102BE000BF92CF92DF92EF92FF920F931F93CF93FA
:102BF000DF9380917B0290917C0210E000E0892BB2
:102C0000A9F0C8DA0AEF1FEF882381F020907D0237
:102C100030907E02C0917B02D0917C02D12CC12CDD
:102C200010E000E02C143D04A9F47894C801DF9171
:102C3000CF911F910F91FF90EF90DF90CF90BF90B9
:102C4000AF909F908F907F906F905F904F903F904C
:102C50002F900895C6010E94220D882309F18B81CF
:102C60009C810397E9F48F859889892BC9F0B60177
:102C700090E080E07AD221E030E0882311F030E06B
:102C800020E044245524421A530AB12CA12C912C43
:102C9000812C8A818815190409F038F4188A1F8656
:102CA0004FEFC41AD40A6396BDCFE881F981EA0DCB
:102CB000FB1D85819681892BA1F161E070E0878100
:102CC0009085A4D33C01D9D28C01E881F981EA0D29
:102CD000FB1D8185928525813681200F311FAC0136
:102CE000421B530B9A0147815085421B530B70E0E6
:102CF00060E00E94AF26E881F981EA0DFB1DE780C4
:102D0000F084458156819301B601C201B9D28C018C
:102D1000892B39F0E881F981EA0DFB1D85819681C7
:102D2000FED45FEF851A950A8DE0A80EB11CB1CFD5
:102D300031CA789408952F923F924F925F926F928A
:102D40007F929F92AF92BF92CF92DF92EF92FF92CB
:102D50000F931F93CF93DF9300D000D000D0CDB757
:102D6000DEB700917B0210917C02992493940115A7
:102D7000110509F43EC0A0907D02B0907E020ADAEF
:102D8000982E8823B1F110927C0210927B0210924F
:102D90007E0210927D0210927F02109280028FEFCD
:102DA0009FEFDC018093130190931401A093150110
:102DB000B093160178947AD31E830D83C12CD12C45
:102DC0007601C501B0E0A0E089839A83AB83BC8320
:102DD00022242A94322C89819A81AB81BC81C81625
:102DE000D906EA06FB06F4F0C80199D480E40E94F3
:102DF0006109892D26960FB6F894DEBF0FBECDBFB0
:102E0000DF91CF911F910F91FF90EF90DF90CF90C6
:102E1000BF90AF909F907F906F905F904F903F904A
:102E20002F900895AD81BE8115968D919C91169736
:102E30002091090130910A0182179307D1F451962C
:102E40008D919C91E6D5ED81FE8180819181B12C9F
:102E5000A12C412C512C3201892B89F5BFEFCB1AC3
:102E6000DB0AEB0AFB0AED81FE817396FE83ED839C
:102E7000B2CFC114D104E104F10429F7892B19F769
:102E8000ED81FE81818992898F3F980709F021D5D4
:102E9000AD81BE8152963C922E925197D4CF8A0D2D
:102EA0009B1DDC018D919C91009709F038D4BFEFF8
:102EB0004B1A5B0A6B0A7B0AEDE0AE0EB11CAD81CA
:102EC000BE818D919C91119712964C9150E070E0CB
:102ED00060E044165506660677060CF320D4BECF94
:102EE000CF93DF93EA0127DF811109C082E090E0F0
:102EF0009983888385EF9FEFDF91CF91089581E0DB
:102F000090E00E94530981E090E09983888390E0EB
:102F100080E0F2CF10DF10927802109277020895CD
:102F200042E050E065EA71E00C947109FF920F9362
:102F30001F93CF93DF938A01EC01C60FD71FF9804F
:102F4000B4D20897F816190671F068F082E090E0A4
:102F5000F801918380838EEF9FEFDF91CF911F91D6
:102F60000F91FF9008956C817D818E819F814B81AF
:102F70000E94080C811108C082E090E0F801918362
:102F8000808384EF9FEFE9CFF9800E94030C4F2DDF
:102F900050E0BE01685F7F4F0E94A62689810E9493
:102FA000720C81E090E0F8019183808390E080E0F2
:102FB000D4CFDF92EF92FF920F931F93CF93DF93C3
:102FC0008A01EC01C60FD71F0E94030C7C01D98037
:102FD0006CD2DD2059F0029721E030E0D8161906B6
:102FE00019F010F030E020E0232B79F482E090E03B
:102FF000F801918380838EEF9FEFDF91CF911F9136
:103000000F91FF90EF90DF900895EF2841F482E058
:1030100090E0F8019183808384EF9FEFEECFF980F9
:103020000E94030C4F2D50E0BE016E5F7F4F0E9447
:10303000A62689810E94720C81E090E0F8019183BC
:10304000808390E080E0D9CF80E997E1909382027D
:103050008093810208958091810290918202089567
:103060000895FC0111821082938382830895DB010D
:103070001D921C92DC011296ED91FC9113977183C5
:10308000608313967C936E9312970895FC01808160
:103090009181DB018D939C93A081B181109741F0C8
:1030A0008D919C9191838083892B11F4F383E2832A
:1030B0000895FC0180819181DB018D939C93892B84
:1030C00011F473836283718360830895FC0111821C
:1030D0001082938382830895CF93DF9300D0CDB77E
:1030E000DEB71A821982F894BE016F5F7F4F88E8BD
:1030F00092E0CCDF89819A81009709F010D3898111
:103100009A81892B89F7BE016F5F7F4F8CE892E02F
:10311000BDDF89819A81009709F001D389819A8165
:10312000892B89F778940F900F90DF91CF910895B4
:10313000CF93DF9300D0CDB7DEB71A821982F8940F
:10314000BE016F5F7F4F84E892E0A0DF89819A81A2
:10315000009709F0E4D289819A81892B89F77894C4
:103160000F900F90DF91CF91089581E0089590E046
:1031700080E00895EF92FF920F931F93CF93DF9318
:1031800000D0CDB7DEB71A8219828091830207EF93
:103190001FEF8823A1F1F894BE016F5F7F4F8CE889
:1031A00092E074DF789489819A81EE24E394F12C83
:1031B000892B51F4F894BE016F5F7F4F88E892E04D
:1031C00065DF7894F12CE12C89819A810EEF1FEF55
:1031D0000097A9F0FC014281538164E070E06AD657
:1031E0008C01892B61F0F89469817A81C701880F7D
:1031F000991F880F991F88579D4F5BDF7894C801EE
:103200000F900F90DF91CF911F910F91FF90EF9052
:1032100008950F931F93CF93DF9300D000D0CDB7C5
:10322000DEB71C821B821A8219828091830207EF0B
:103230001FEF8823C1F0AE014D5F5F4F64E070E087
:10324000CE010196AAD68C01892B69F4E981FA8115
:103250008B819C8193838283F89469817A8184E84D
:1032600092E005DF7894C8010F900F900F900F90B7
:10327000DF91CF911F910F910895AED704960895D5
:103280008F929F92AF92BF92CF92DF92EF92FF9276
:103290000F931F93CF93DF9300D0CDB7DEB71A8281
:1032A0001982BC016F5F7F4F6330710598F0AA24CB
:1032B000AA94BA2CC5010F900F90DF91CF911F9166
:1032C0000F91FF90EF90DF90CF90BF90AF909F90C5
:1032D0008F9008954115510551F3480159018A0114
:1032E0006C01CBDF8815990511F7E114F104F9F2AF
:1032F0008E0D9F1DA816B906D0F2809183028823F7
:10330000F1F0F894B501645071099701AE014F5F77
:103310005F4FC8010496D5D65C01892B71F4898171
:103320009A81F80193838283C601880F991F880FC1
:10333000991FB80188579D4F9ADE7894BBCF87EFCD
:10334000A82EBB24BA94B6CFAF92BF92CF92DF9291
:10335000EF92FF920F931F93CF93DF9300D0CDB7DF
:10336000DEB71A821982892B09F047C061157105F1
:1033700009F443C04115510509F43FC02115310539
:1033800009F43BC001151105C1F180918302882326
:10339000B9F179016A015B01F894BE016F5F7F4F5B
:1033A00084E892E073DE789489819A81009759F1DC
:1033B000DC0112966D917C91A80104969BD68C013C
:1033C000E981FA81D501ED93FC9382819381049682
:1033D000F6019183808351DFD7018D939C93C801BF
:1033E0000F900F90DF91CF911F910F91FF90EF9071
:1033F000DF90CF90BF90AF9008950FEF1FEFEFCF0A
:1034000007EF1FEFECCF0EEF1FEFE9CFCF93DF9366
:10341000EC01672B71F4E9D68C179D0760F0DCD6C0
:103420002496C80FD91FDBD68C0F9D1FDF91CF913B
:103430000895D8D6F1CF90E080E0F8CF0F931F9396
:10344000CF93DF932091830221112BC08B01EC01DC
:1034500088E892E006DE8CE892E003DE84E892E001
:1034600000DE97D00097C1F4C0D670E060E0CEDFF8
:1034700047E151E062E070E07ED1009769F480910D
:10348000170190911801C3D6B801CE01F9D4009765
:1034900019F421E020938302DF91CF911F910F91C6
:1034A000089584EF9FEFF8CF9DC69FC6CF93DF931B
:1034B0009FD6EC01892B11F40FDE3ADECE01DF91AD
:1034C000CF910895CF93DF9393D6EC01892B09F424
:1034D00003DECE01DF91CF91089580911701909185
:1034E00018010895CF93DF9380918302D0E0C0E06C
:1034F0008823D1F091D6EC01892BB1F4EDDD18DEF3
:103500008091170190911801E4D1E5D2EC01892B4B
:1035100059F488E892E0DADD8CE892E0D7DD84E8BF
:1035200092E0D4DD10928302CE01DF91CF91089515
:10353000EF92FF920F931F93CF93DF93EC017A01E9
:103540008B010F5F1F4F0E9DA0010F9D500D1E9D03
:10355000500D112470E060E00E94AF2690E080E002
:10356000F0E0E0E02FEFE816F90639F4DF91CF91B3
:103570001F910F91FF90EF9008951A82198228836E
:10358000309711F0D283C1830196FE01C00FD11F85
:10359000EACFCF92DF92EF92FF920F931F93CF93D8
:1035A000DF9304E613E00C7F43E050E069E171E053
:1035B0008FE191E012D489E1E82E81E0F82E9FE1BD
:1035C000C92E91E0D92ECBECD3E0D7014D915D917E
:1035D0007D01F601619171916F01198308835D830B
:1035E0004C835B834A837F836E839B012F5F3F4FB6
:1035F000249FC001259F900D349F900D1124998721
:1036000088870115110511F0C80192DF8885998519
:10361000080F191F2A96FFE1EF16F1E0FF06A9F641
:10362000E2E9F2E08FECDF011D928A95E9F7109252
:103630009102109290021092EA031092E903109204
:10364000EE031092ED031092EC031092EB03109234
:10365000F0031092EF031092F2031092F103109214
:10366000F4031092F3031092F8031092F7031092F0
:10367000F6031092F5031092FA031092F9031092D8
:10368000FC031092FB031092C8031092C703109220
:10369000CA031092C90390E080E0DF91CF911F919F
:1036A0000F91FF90EF90DF90CF9008950097F1F089
:1036B000F894AFE1B1E0EBECF3E030E020E04D91C5
:1036C0005D9148175907A8F0428153814115510572
:1036D00081F08AE0829FF001839FF00D1124E55371
:1036E000FC4F80819181009759F4789490E080E0BC
:1036F00008952F5F3F4F3A962330310501F7F5CFFC
:10370000DC0111966D917C91718360834150510968
:1037100053834283FC012193CF017894089500974D
:1037200049F1DC018E91853041F4E091C903F091BB
:10373000CA033097F9F0CD0109948530D8F4282FC9
:1037400030E0F8948FEF8C938AE0829FF001839FA2
:10375000F00D1124E553FC4F8081918112969C93CA
:103760008E931197B183A083828193810196938375
:10377000828378940895CF92DF92EF92FF920F9315
:103780001F93CF93DF939C0185E992E08C7F4115D5
:10379000510509F49BC02115310509F497C0611545
:1037A000710509F493C07A01AB01B9016D5F7F4FD8
:1037B0006C7F9B012F5F3F4F249F8001259F100D41
:1037C000349F100D1124F8942091E9033091EA03FD
:1037D000232B59F42091F1033091F2032115310587
:1037E00069F12017310708F058C02091F303309198
:1037F000F403232B91F42091F1033091F203820F13
:10380000931F2091FB033091FC032115310509F42E
:1038100041C02017310708F056C07894CFEFDFEF92
:1038200086EF9FEFF701D183C083DF91CF911F9186
:103830000F91FF90EF90DF90CF900895C3E0D0E01C
:10384000C0909002D09091022CEC30E02C193D09F0
:103850002017310710F32AE02C9FF0012D9FF00D67
:103860001124E553FC4F9183808355834483538314
:1038700042837783668311870087009709F058DEBB
:103880000C0D1D1D1093910200939002789490E00E
:1038900080E0C8CFC4E0D0E0D3CFC3E0D0E02AE0DE
:1038A0002C9FF0012D9FF00D1124E553FC4F9183C7
:1038B0008083558344835383428377836683009751
:1038C00029F336DEE3CFC4E0D0E0E9CF8FEF9FEFFE
:1038D000ACCF9C010397029708F069C0F89484E08C
:1038E0009AE0482F50E0241735070CF44DC091E0C2
:1038F0008AE0829FF001839FF00D1124E553FC4F75
:10390000118210821582148213821282178216820B
:103910009923B1F18091E9039091EA03892BA9F4ED
:103920002091F1033091F2032115310571F080915E
:10393000900290919102821B930B9093910280933D
:1039400090021092F2031092F1038091F303909190
:10395000F403892BA9F42091FB033091FC0321157A
:10396000310571F08091900290919102821B930B2E
:1039700090939102809390021092FC031092FB03AB
:10398000789490E080E00895949FF001959FF00D69
:103990001124E553FC4F40815181452B31F4408582
:1039A0005185452B11F481509CCF90E0A1CF8FEF32
:1039B0009FEF08954115510549F1009739F16115BF
:1039C000710521F1F8942091C7033091C803232B8E
:1039D000B9F42091C9033091CA03232B89F4909341
:1039E000C8038093C7037093CA036093C903789494
:1039F00025E030E090E080E0FA01318320830895F3
:103A000078942FEF3FEF86EF9FEFF6CF8FEF9FEF8A
:103A10000895059769F4F8941092C8031092C703AB
:103A20001092CA031092C903789490E080E0089540
:103A30008FEF9FEF08956115710519F4F0E0E0E054
:103A400011C08530910581F4E091C703F091C8035E
:103A50003097A1F3CB0101960995009779F3FC010A
:103A600085E08193CF0108959C01235031092230D4
:103A7000310520F72AE0289FD001299FB00D11249D
:103A8000A553BC4F2D913C911197232BB9F216965B
:103A90002D913C9117972617370780F2F8941296CC
:103AA0002D913C9113972115310529F0ED91FC9151
:103AB0001197309711F47894C1CF418152811196BA
:103AC0005C934E932150310913963C932E93129799
:103AD00081937894C7CFE1E6F3E086E6DF011D929B
:103AE0008A95E9F7E2E9F2E08FECDF011D928A9511
:103AF000E9F71092910210929002EBECF3E082E36E
:103B0000DF011D928A95E9F7E7ECF3E084E0DF013D
:103B10001D928A95E9F790E080E00895CF93DF93B6
:103B2000C0912501D0912601CF3FDC0759F440D444
:103B3000909326018093250197FF09C0D093260119
:103B4000C093250184EF9FEFDF91CF91089590E01E
:103B500080E0FACF8230910528F48093FD0390E055
:103B600080E008958FEF9FEF08954F925F926F92DC
:103B70007F92AF92BF92CF92DF92EF92FF920F931C
:103B80001F93CF93DF9300D0CDB7DEB71A8219828F
:103B9000009709F478C06115710509F474C020918B
:103BA00025013091260107EF1FEF2F3F3F4F09F40A
:103BB00044C06B015C01412C512C3201F12CE12CF1
:103BC00010E000E09E012F5F3F4FA6014E195F09F4
:103BD000B5016E0D7F1D809125019091260147D47E
:103BE000892B09F04AC089819A81009741F4E11438
:103BF000F10429F42091FD03222309F441C0E80EC9
:103C0000F91EEC14FD04C8F480E8481684E8580650
:103C10008EE16806710418F560E070E0CB018ED586
:103C20002AE0420E511C611C711C0A3F4FEF140721
:103C300021F0043F8FEF1807A1F4C8010F900F90F7
:103C4000DF91CF911F910F91FF90EF90DF90CF9078
:103C5000BF90AF907F906F905F904F90089501EF6D
:103C60001FEF81E090E0013F2FEF120711F090E08D
:103C700080E0892B09F4A6CFE0CF04EF1FEFDDCF62
:103C80000AEF1FEFDACF0FEF1FEFD7CF4F925F9200
:103C90006F927F92AF92BF92CF92DF92EF92FF929C
:103CA0000F931F93CF93DF9300D0CDB7DEB71A8267
:103CB0001982009709F478C06115710509F474C080
:103CC000209125013091260107EF1FEF2F3F3F4F35
:103CD00009F444C06B015C01412C512C3201F12CE0
:103CE000E12C10E000E09E012F5F3F4FA6014E192E
:103CF0005F09B5016E0D7F1D809125019091260110
:103D00006CD3892B09F04AC089819A81009741F4CC
:103D1000E114F10429F42091FD03222309F441C0A8
:103D2000E80EF91EEC14FD04C8F480E4481682E4A1
:103D300058068FE06806710418F560E070E0CB016A
:103D4000FDD42AE0420E511C611C711C0E3F4FEF46
:103D5000140721F0043F8FEF1807A1F4C8010F905A
:103D60000F90DF91CF911F910F91FF90EF90DF9017
:103D7000CF90BF90AF907F906F905F904F900895DD
:103D800002EF1FEF81E090E0023F2FEF120711F0EA
:103D900090E080E0892B09F4A6CFE0CF04EF1FEF7D
:103DA000DDCF0EEF1FEFDACF0FEF1FEFD7CF8091F0
:103DB0002501909126018F3F980749F0F1D2892B78
:103DC00049F48FEF9FEF909326018093250190E0B7
:103DD00080E0089584EF9FEF0895CF92DF92EF92F5
:103DE000FF920F931F93CF93DF9321E0411551056D
:103DF00009F020E04150510921112CC0DC01FB01E8
:103E0000D12CC12C21E022C03FEFC31AD30A7D017F
:103E10000D911D91E701EA80FB80E016F106A8F400
:103E200020813181E280F380F182E082338322833A
:103E3000ED90FC9011979D0122503109E901F98222
:103E4000E88211961C930E9320E03296C416D50694
:103E5000D8F2D2CFDF91CF911F910F91FF90EF90C9
:103E6000DF90CF900895FC01680F791F90E080E00B
:103E7000E617F70709F408952191820F911DF8CFF5
:103E80002091FE03211113C049DE009791F4109296
:103E90000404109203041092020410920104109280
:103EA00000041092FF0321E02093FE03089584EFA5
:103EB0009FEF0895AF92BF92CF92DF92EF92FF9261
:103EC0000F931F93CF93DF93009709F460C04630A0
:103ED000510508F45CC02091FE03C7EFDFEF2223F9
:103EE00009F449C08C01060F171FF801C080D1806A
:103EF000C114D10409F44EC096012A5F3F4F421706
:103F0000530708F447C07C01809103049091040496
:103F100093838283B6016C5F7F4F5801A60EB71E54
:103F2000C801A1DFF5019183808364E070E0C801DE
:103F30001CDEEC01892BF9F481E090E00BDEB60188
:103F4000C801049612DEEC01892B91F462E070E066
:103F5000C5010BDEEC01892B59F4C701E0DB809130
:103F60000304909104040196909304048093030445
:103F700090E080E0EFDDCE01DF91CF911F910F91B6
:103F8000FF90EF90DF90CF90BF90AF900895CFEF6C
:103F9000DFEFF1CFC9EFDFEFEECF6F927F928F921D
:103FA0009F92AF92BF92CF92DF92EF92FF920F93C8
:103FB0001F93CF93DF9300D000D0CDB7DEB700972B
:103FC00009F479C04115510509F475C02091FE032B
:103FD00007EF1FEF222309F44CC03A017B015C017B
:103FE00064E070E0CE01019651DE8C01892B09F06E
:103FF00040C009811A810115110509F459C0480111
:1040000086E0880E911CB701680D791D809127010B
:104010009091280110DD6C01009709F44FC0A701B1
:1040200070E060E09CD689819A81AB81BC81EC0C08
:10403000FD1CF70181939193A193B1937F0181E0DE
:1040400090E088DDB801C70121DE892B31F562E0FF
:1040500070E0C701800F911F19DE8C01892BE9F4F4
:1040600090E080E077DDF501D182C082F30191829A
:104070008082C8010F900F900F900F90DF91CF9129
:104080001F910F91FF90EF90DF90CF90BF90AF9076
:104090009F908F907F906F90089590E080E05ADD20
:1040A000F50111821082F30111821082C60137DB03
:1040B00009EF1FEFDECF0FEF1FEFDBCF06EF1FEF94
:1040C000D8CF0097A1F04115510589F02115310590
:1040D00071F0F90136966E177F0748F0DC012D93D9
:1040E0003C93DA01ED93FC9390E080E008958FEF2C
:1040F0009FEF0895AF92BF92CF92DF92EF92FF921F
:104100000F931F93CF93DF93009709F45FC041157E
:10411000510509F45BC06530710508F457C0209162
:10412000FE03C7EFDFEF222391F1DC01CD90DC909D
:1041300011971296ED91FC9196012A5F3F4FC9EFBE
:10414000DFEF2617370719F5C091FF03D091000460
:10415000209749F521E030E0309300042093FF03DD
:104160007A018C01F0930204E09301045601B4E05B
:10417000AB0EB11CB50177DE0A0D1B1DF8012081C5
:1041800031818217930729F5D701CD92DC92CE01B8
:10419000DF91CF911F910F91FF90EF90DF90CF9023
:1041A000BF90AF90089520910104309102042F5FD9
:1041B0003F4FCCEFDFEFE217F30790F2CBEFDFEFEB
:1041C0002E173F0768F2D0E0C0E0CACFCFEFDFEF95
:1041D000DECFC3EFDFEFDBCF84E090E0089582E035
:1041E00090E008958CEF9FEF089580E290E00895AD
:1041F000109204041092030410920204109201041D
:10420000109200041092FF0390E080E008959093D4
:1042100028018093270108958091FE03882391F05F
:10422000C6DD009789F410920404109203041092E2
:10423000020410920104109200041092FF031092E5
:10424000FE03089590E080E00895009749F061151D
:10425000710531F0FC0111821082FB011182108284
:104260000895F3CF089526E030E040E855E260E09D
:1042700070E090E080E000C0109206041092050407
:1042800089309105E0F4895B9E4DFC0140C55021C9
:10429000592160216321662169216C216F217521DB
:1042A00081E090E0909306048093050484E194E01B
:1042B000D7C382E090E090930604809305040895AC
:1042C00084E090E0F8CF88E090E0F5CF80E190E0E6
:1042D000F2CF80E290E0EFCF80E490E0ECCF80E896
:1042E00090E09093060480930504809105049091DA
:1042F00006049160E0CF1F920F920FB60F92112427
:104300002F933F934F935F936F937F938F939F93DD
:10431000AF93BF93EF93FF9386E997EE9093850059
:1043200080938400B7D0FF91EF91BF91AF919F919F
:104330008F917F916F915F914F913F912F910F904E
:104340000FBE0F901F90189586E997EE9093850009
:1043500080938400AFE6B0E08C918E7F8C93E0E890
:10436000F0E080818C7F8083E1E8F0E08081877ECF
:10437000808380818560808380818D7F80838C9124
:1043800081608C930895EFE6F0E0808190819E7FBC
:1043900090838170089581E0089510920704089534
:1043A00068EE73E080E090E0C9D190E080E008958D
:1043B00026E030E040E052EC61E070E090E080E028
:1043C0005BDF84E194E082D2892B21F084E194E0E8
:1043D00097D2F7CF90E080E00895CF92DF92EF92EE
:1043E000FF920F931F93CF93DF936B017A01E90143
:1043F0001982188284E194E069D2892B69F18601DF
:10440000CC24C39482E0D82E80910704811110C07F
:1044100084E194E075D20297B9F7C0920704F801DD
:10442000D1928F0188819981019699838883ECCFFD
:10443000888199818E159F0578F484E194E060D29B
:104440008F3F9807A9F3F80181938F0188819981A3
:10445000019699838883ECCF90E080E0DF91CF9143
:104460001F910F91FF90EF90DF90CF9008950F93E1
:104470001F93CF93DF93EA01890184E194E0D4D3C1
:10448000F801D183C08390E080E0DF91CF911F914C
:104490000F910895CF92DF92EF92FF9280910804DE
:1044A00091E0980F90930804882369F021E030E0B0
:1044B00030930A042093090480930804FF90EF903E
:1044C000DF90CF9008957894E0912B01F0912C012A
:1044D000C688D788E08CF18C0E948802B701A601BB
:1044E00090E080E00E94FB01F894809108048150E4
:1044F000E3CF0F931F93CF93DF931092BC041092DE
:10450000BB0452D1B0DEC0912B01D0912C01198295
:10451000188262E370E080E090E00E947D0270E02B
:1045200060E090E080E00E94FF00009709F03AC050
:104530000E94A402F89478948A819B81BC01685FF0
:104540007F4F0E940201892B59F46FEF7FEFCB015F
:104550000E9492010E947702882311F081E08E8FE1
:10456000F894F2DE0E947A02882311F080E008C0FD
:104570000E9477028111FACF81E09E8D9111F6CFD2
:104580008093BB0478940E944E098C0178948091AA
:10459000BB0481110CC00E940C030E945D02F894C0
:1045A00090E080E0DF91CF911F910F9108950E94DC
:1045B0005B020E947A028823E1F081E08093BC04D0
:1045C0009091BC0481E0911180E08093BB048091C4
:1045D000BC048111D8DE0130110529F40E944E0976
:1045E000892B09F4DADE0E944E098C01D4DE3ADE12
:1045F000CECF0E9477028111E0CF81E09E8D911194
:10460000DDCF80E0DBCF03D008F481E00895990F7F
:104610000008550FAA0BE0E8FEEF16161706E8078C
:10462000F907C0F012161306E407F50798F0621BAD
:10463000730B840B950B39F40A2661F0232B242B82
:10464000252B21F408950A2609F4A140A6958FEFA1
:10465000811D811D0895DBDF08F48FEF08951F92FF
:104660000F920FB60F9211242F933F938F939F9326
:10467000AF93BF9380910C0490910D04A0910E0410
:10468000B0910F0430910B0423E0230F2D3758F520
:104690000196A11DB11D20930B0480930C049093EF
:1046A0000D04A0930E04B0930F0480911004909118
:1046B0001104A0911204B09113040196A11DB11D23
:1046C0008093100490931104A0931204B0931304E8
:1046D000BF91AF919F918F913F912F910F900FBEFE
:1046E0000F901F90189526E8230F0296A11DB11D6B
:1046F000D2CF3FB7F8948091100490911104A0910B
:104700001204B091130426B5A89B05C02F3F19F0E1
:104710000196A11DB11D3FBFBA2FA92F982F882741
:10472000BC01CD01620F711D811D911D42E0660F1C
:10473000771F881F991F4A95D1F708958F929F92EE
:10474000AF92BF92CF92DF92EF92FF926B017C010A
:10475000D0DF4B015C01C114D104E104F104D9F0B4
:1047600090D2C7DF681979098A099B09683E7340AE
:104770008105910580F321E0C21AD108E108F10812
:1047800088EE880E83E0981EA11CB11CC114D104D0
:10479000E104F10431F7FF90EF90DF90CF90BF90EC
:1047A000AF909F908F900895789484B5826084BD77
:1047B00084B5816084BD85B5826085BD85B5816025
:1047C00085BDEEE6F0E0808181608083E1E8F0E085
:1047D0001082808182608083808181608083E0E8B4
:1047E000F0E0808181608083E1EBF0E08081846093
:1047F0008083E0EBF0E0808181608083EAE7F0E095
:1048000080818460808380818260808380818160F8
:1048100080838081806880831092C10008958E30EB
:1048200008F08E502091290190E4299F90011124D5
:104830008770822B80937C0080917A0080648093C3
:104840007A0080917A0086FDFCCF8091780090916B
:1048500079000895CF93DF9390E0FC01E859FF4F72
:10486000249184589F4FFC0184918823C9F090E0E3
:10487000880F991FFC01E656FF4FA591B491FC01EA
:10488000E057FF4FC591D49161110DC09FB7F894C7
:104890008C91209582238C938881282328839FBF25
:1048A000DF91CF910895623051F49FB7F8943C9115
:1048B000822F809583238C93E8812E2BEFCF8FB7A7
:1048C000F894EC912E2B2C938FBFEACFFC01918DA5
:1048D000228D892F90E0805C9F4F821B91098F73FE
:1048E00099270895FC01918D828D981731F0828D62
:1048F000E80FF11D858D90E008958FEF9FEF0895EB
:10490000FC01918D828D981761F0A28DAE0FBF2FA3
:10491000B11D5D968C91928D9F5F9F73928F90E0F9
:1049200008958FEF9FEF0895FC01538D448D252F3F
:1049300030E0842F90E0821B930B541710F0CF9639
:10494000089501970895FC01A48DA80FB92FB11DFA
:10495000A35ABF4F2C91848D90E001968F739927B5
:10496000848FA689B7892C93A089B1898C91837093
:1049700080648C93938D848D981306C00288F3898C
:10498000E02D80818F7D80830895CF93DF93EC01AC
:10499000888D8823B1F0AA89BB89E889F9898C912F
:1049A00085FD03C0808186FD0CC00FB607FCF7CFE4
:1049B0008C9185FFF2CF808185FFEDCFCE01C3DFE3
:1049C000EACFDF91CF910895EF92FF920F931F935B
:1049D000CF93DF93EC0181E0888F9B8D8C8D9813B2
:1049E0001AC0E889F989808185FF15C09FB7F894BE
:1049F000EE89FF896083E889F9898081837080640A
:104A000080839FBF81E090E0DF91CF911F910F9154
:104A1000FF90EF900895F62E0B8D10E00F5F1F4F63
:104A20000F731127E02E8C8D8E110BC00FB607FC73
:104A3000FACFE889F989808185FFF5CFCE0183DF40
:104A4000F2CFEB8DEC0FFD2FF11DE35AFF4FF082FB
:104A50009FB7F8940B8FEA89FB8980818062D0CF61
:104A6000CF92DF92EF92FF921F93CF93DF93EC01EF
:104A70006A017B01122FE889F98982E08083C114E1
:104A800081EED806E104F10499F060E079E08DE36D
:104A900090E0A701960119D121503109410951092E
:104AA0005695479537952795211580E1380790F061
:104AB000E889F989108260E874E88EE190E0A70146
:104AC000960103D121503109410951095695479565
:104AD00037952795EC85FD853083EE85FF8520830E
:104AE000188EEC89FD891083EA89FB8980818061B9
:104AF0008083EA89FB89808188608083EA89FB89D9
:104B0000808180688083EA89FB8980818F7D8083B2
:104B1000DF91CF911F91FF90EF90DF90CF9008959C
:104B20001F920F920FB60F9211242F938F939F9382
:104B3000EF93FF93E0912404F09125048081E091AC
:104B40002A04F0912B0482FD1BC0908180912D04DA
:104B50008F5F8F7320912E04821741F0E0912D0416
:104B6000F0E0EC5EFB4F958F80932D04FF91EF9169
:104B70009F918F912F910F900FBE0F901F901895BE
:104B80008081F4CF1F920F920FB60F9211242F93B2
:104B90003F934F935F936F937F938F939F93AF93C5
:104BA000BF93EF93FF9384E194E0CDDEFF91EF910B
:104BB000BF91AF919F918F917F916F915F914F9135
:104BC0003F912F910F900FBE0F901F901895E4E129
:104BD000F4E01382128288EE93E0A0E0B0E08483D8
:104BE0009583A683B78385EB91E09183808385ECE1
:104BF00090E09587848784EC90E09787868780ECA7
:104C000090E0918B808B81EC90E0938B828B82EC97
:104C100090E0958B848B86EC90E0978B868B118E41
:104C2000128E138E148E0895AF92BF92CF92DF92A0
:104C3000EF92FF920F931F93CF93DF936C017B0151
:104C40008B01040F151FEB015E01AE18BF08C017E2
:104C5000D10759F06991D601ED91FC910190F08155
:104C6000E02DC6010995892B79F7C501DF91CF9118
:104C70001F910F91FF90EF90DF90CF90BF90AF907A
:104C800008950895DB018F939F9347D0BF91AF9113
:104C9000A29F800D911DA39F900DB29F900D112496
:104CA0000895AA1BBB1B51E107C0AA1FBB1FA61773
:104CB000B70710F0A61BB70B881F991F5A95A9F7C5
:104CC00080959095BC01CD010895A1E21A2EAA1BF2
:104CD000BB1BFD010DC0AA1FBB1FEE1FFF1FA217AC
:104CE000B307E407F50720F0A21BB30BE40BF50BA9
:104CF000661F771F881F991F1A9469F76095709532
:104D0000809590959B01AC01BD01CF010895EE0FF8
:104D1000FF1F0590F491E02D099409D0A59F900DF7
:104D2000B49F900DA49F800D911D11240895A29F02
:104D3000B001B39FC001A39F700D811D1124911D6F
:104D4000B29F700D811D1124911D0895FB01DC019E
:104D500002C001900D9241505040D8F70895DC01F7
:104D600001C06D9341505040E0F70895F894FFCF93
:104D7000FEFFFFFF01E8030000FFFF00000000FF4F
:104D8000FFFFFFFFFFFFFFFFFF0100010001002009
:104D90000038000800FFFFFFFF0101E101FF00A54F
:104DA0000BD10BFE008B0B0909FD001D0B770BFCD3
:104DB00000630B0909F600540C0909F5002A0B934E
:104DC0000CF4001D0CAA0CDE00D8107113DD004796
:104DD000120909DA007A0E820ED9008C13920EE2C3
:104DE00000620D0909E1009D0D0909E000120E099C
:104DF00009D60070170909D50027100909D400B396
:104E00000F0909D300240F0909DC00A10E0909C00C
:104E100000A90E0909F000D9170909ED0096170934
:104E20000900000000E42414269424C5246624808C
:044E300024722400C4
:00000001FF
